:10000000020A1A759850538EBF538EFE53890F758E
:100010008BE8758DFFC2ABD28ED2ACD2AF22344307
:100020001010010207EC759A50538EFB75D7E875D6
:10003000D6FF438E1053AFFE43AF01D2AF53BAFE8B
:01004000229D
:10004300020BCEE5082407F582E43401F583E005CD
:100053000822900104300703900107E475F00112B0
:1000630005DA0204A12000E97F2ED2008018EF54A4
:100073000F2490D43440D4FF30040BEF24BFB41AC0
:100083000050032461FFE50960021509050CE50C26
:100093007002050B30070E900104E475F0011205A0
:1000A300DAEF0205C8020DB77403D2078003E4C276
:1000B30007F5089001041205F1E4F509F50BF50CB9
:1000C300E50960077F2012008980F5750AFFC201E8
:1000D300C200C202C203C205C206C208120055FF13
:1000E300700D3007057F0012009AAF0CAE0B22B4DF
:1000F300255FC2D5C204120055FF24D0B40A0050B4
:100103001A75F00A780930D50508B6FF0106C6A4AA
:1001130026F620D5047002D20380D924CFB41A0066
:10012300EF5004C2E5D20402029BD20180C6D20082
:1001330080C0D20280BCD2D580BAD20580B47F20E1
:100143001200892002077401B5090040F11200462C
:10015300FF1200890200C3D208D20680951200461E
:10016300FB120046FA120046F94A4B7006796C7A84
:10017300037BFF20022EE509602A7E008E827583B1
:10018300001204BA60060EEE650A70F0C2D5EBC029
:10019300E0EAC0E0E9C0E0EE1202E2D0E0F9D0E02C
:1001A300FAD0E0FB1204A1FF60AAEBC0E0EAC0E0D2
:1001B300E9C0E0120089D0E02401F9D0E03400FA6C
:1001C300D0E0FBE50A0460DCD50AD980877BFF7A9F
:1001D3000279DED202809C791080027908C206C2BD
:1001E300088008D2D5790A8004790AC2D5E50A04C1
:1001F3007002F50AE4FAFDFEFF120046FC7B0820BC
:100203000113120046FD7B1030000A120046FE1255
:100213000046FF7B20EC3382D592D55013C3E430E4
:1002230000069FFFE49EFEE42001039DFDE49CFC89
:10023300E4CBF8C201EC700CCFCECDCCE824F8F8B7
:1002430070F38017C3EF33FFEE33FEED33FDEC3372
:10025300FCEB33FB994002FB0FD8E9EB300105F8C7
:10026300D0E0C448B201C0E00AEC4D4E4F78207B89
:100273000070C2EAB50A0040BCC0E01202E4D0F04C
:10028300D0E0200104C4C0E0C4B201C0F012007287
:10029300D0F0D5F0EB0200C31205FA01605301DA86
:1002A3005801314C012D4201DE4F01E64401E6497C
:1002B30001464301EC5501D04601D04501D0470327
:1002C3008C5001352D01392E015C2B013D23015A40
:1002D3002003752A00F548000001543F3F3F007991
:1002E3000AA2D5200314300509B910020404B90881
:1002F3000104A2D52006025001042002689202B52F
:1003030009005034C0E07F203003197F30A202720D
:10031300067205500F12033BC202C206C205C20891
:100323007F30800F300503E9C0E0120089300503F8
:10033300D0E0F9D0E0B509CC3005177F30B9100C07
:100343001200897F583004077F788003B9080312AD
:1003530000893002057F2D0200897F202008F87F65
:100363002B2006F322920280CF286E756C6C290035
:10037300D2011200463001F8C201780930D50108D4
:10038300F60200F52D504349581200462403B405E4
:10039300004001E49003879312007A743A12007AC2
:1003A300D2037509040201DAE709F608DFFA804689
:1003B300E709F208DFFA803E88828C83E709F0A31D
:1003C300DFFA8032E309F608DFFA8078E309F208FE
:1003D300DFFA807088828C83E309F0A3DFFA8064FC
:1003E30089828A83E0A3F608DFFA805889828A83A8
:1003F300E0A3F208DFFA804C80D280FA80C680D472
:10040300806980F28033801080A680EA809A80A879
:1004130080DA80E280CA803389828A83ECFAE493AB
:10042300A3C8C582C8CCC583CCF0A3C8C582C8CC39
:10043300C583CCDFE9DEE7800D89828A83E493A359
:10044300F608DFF9ECFAA9F0EDFB2289828A83EC46
:10045300FAE0A3C8C582C8CCC583CCF0A3C8C582C3
:10046300C8CCC583CCDFEADEE880DB89828A83E4FB
:1004730093A3F208DFF980CC88F0EF60010E4E60A1
:10048300C388F0ED2402B4040050B9F582EB2402D2
:10049300B4040050AF23234582239003FB73BB01B5
:1004A3000689828A83E0225002E722BBFE02E3220E
:1004B30089828A83E49322BB010CE58229F582E5D4
:1004C300833AF583E0225006E92582F8E622BBFE53
:1004D30006E92582F8E222E58229F582E5833AF5E9
:1004E30083E49322F8BB010DE58229F582E5833A83
:1004F300F583E8F0225006E92582C8F622BBFE0503
:10050300E92582C8F222EF8DF0A4A8F0CF8CF0A4E5
:1005130028CE8DF0A42EFE22BC000BBE0029EF8D49
:10052300F084FFADF022E4CCF875F008EF2FFFEE76
:1005330033FEEC33FCEE9DEC984005FCEE9DFE0F84
:10054300D5F0E9E4CEFD22EDF8F5F0EE8420D21CDF
:10055300FEADF075F008EF2FFFED33FD4007985027
:1005630006D5F0F222C398FD0FD5F0EA22C5F0F8C4
:10057300A3E028F0C5F0F8E582158270021583E048
:1005830038F022A3F8E0C5F025F0F0E5821582707B
:10059300021583E0C838F0E822EF4E6012EF6001E5
:1005A3000EEDBB010B89828A83F0A3DFFCDEFA2206
:1005B30089F05007F709DFFCA9F022BBFEFCF30921
:1005C300DFFCA9F022BB010689828A83F022500254
:1005D300F722BBFE01F322F8E0FBA3A3E0F925F029
:1005E300F0E582158270021583E0FA38F022EBF011
:1005F300A3EAF0A3E9F022D083D082F8E493701247
:10060300740193700DA3A393F8740193F582888307
:10061300E4737402936860EFA3A3A380DFE4900103
:1006230007F0900050E070030207EBE4F07BFF7AE1
:100633000E7965120D007B017A007900120D00E43A
:10064300900107F0900107E0FF3395E0FED3EF94AC
:1006530006EE6480948040030207EBEF4E702F9008
:10066300010D74FFF0A3740EF0A37476F07B017A8E
:100673000079001208B8900101EBF0A3EAF0A3E9B6
:10068300F04A4B60030207E27F01FE0207DF90019D
:1006930002E475F00112057090010D74FFF0A3746C
:1006A3000EF0A37476F0900101E0FBA3E0FAA3E05F
:1006B300F91208B8900104EBF0A3EAF0A3E9F04AB9
:1006C3004B70030207DBA3E024FE60371460511470
:1006D300606B14700302075D14700302077A24052C
:1006E30060030207A5900101A3E0FAA3E0AE02FFB5
:1006F300A3A3E0FAA3E0C39FFFEA9EFE78527C0027
:10070300020795900101A3E0FAA3E0AE02FFA3A3C1
:10071300E0FAA3E0C39FFFEA9EFE78087C018072A3
:10072300900101A3E0FAA3E0AE02FFA3A3E0FAA3C2
:10073300E0C39FFFEA9EFE785D7C00805590010137
:10074300A3E0FAA3E0AE02FFA3A3E0FAA3E0C39FF2
:10075300FFEA9EFE78687C008038900101A3E0FAEE
:10076300A3E0AE02FFA3A3E0FAA3E0C39FFFEA9EC8
:10077300FE786A7C00801B900101A3E0FAA3E0AE3F
:1007830002FFA3A3E0FAA3E0C39FFFEA9EFE7876ED
:100793007C007D01900101E0FBA3E0FAA3E0F912E4
:1007A300047B900104E0F9A3E0FAA3E0900101C9FE
:1007B300F0A3EAF0A3E9F09000517401F09001086E
:1007C300E0FFB441089000787401F08012EFB45652
:1007D3000EE4900078F080077F027E00120D909067
:1007E3000107E004F002064722C0E0C0F0C083C066
:1007F30082C0D075D018E4FF9000FDF0209803026A
:1008030008ADC298AF99EFB424059000FBE4F090D3
:1008130000FBE0D3940574809480500DE0FE04F057
:1008230074222EF8A61F0208AD7826E67E00B44D8A
:10083300027E017822E67D00B424027D01ED5E6034
:10084300697827E6644370629000FBE0FE04F0746D
:10085300222EF8A61FEF640A703AFE7F50FD7B013B
:100863007A00790012059C9000FBE0FF7E0078007F
:100873007C007D017B007A00792212047B9000507A
:100883007401F09000FBE4F0FE7F4CFDFB7A0079ED
:100893002212059C9000FBE0C3944B74809480402B
:1008A30009744BF0E02422F87600D0D0D082D083B4
:1008B300D0F0D0E03290010AEBF0A3EAF0A3E9F024
:1008C300A3E0FBA3E0FAA3E0F91204A17003020979
:1008D3006490010AE0FBA3E0FAA3E0F91204A1701B
:1008E3000302097090010DE0F9A3E0FAA3E0A3C9A4
:1008F300F0A3EAF0A3E9F090010AA3E0FAA3E0F978
:10090300900113EBF0A3EAF0A3E9F0900110E0FBF0
:10091300A3E0FAA3E0F91204A1FF6026900113E01B
:10092300FBA3E0FAA3E0F91204A16F701590011183
:1009330075F001120570900114E475F00112057051
:1009430080C9900110E0FBA3E0FAA3E0F91204A12F
:100953007002800D90010BE475F00112057002081E
:10096300D490010AE0FBA3E0FAA3E0F9227B007A2A
:1009730000790022900051E07003020A19E4F07B31
:10098300FF7A0E7978120D007B017A007952120DED
:10099300007BFF7A0E7962120D00900078E0606DA3
:1009A300E4F07BFF7A0E798D120D007B017A0079DA
:1009B3005D120D007BFF7A0E7962120D007BFF7AC8
:1009C3000E79A3120D007B017A007968120D007B6A
:1009D300FF7A0E7962120D007BFF7A0E79B4120D45
:1009E300007B017A00796A120D007BFF7A0E79622F
:1009F300120D007BFF7A0E79CB120D007B017A007A
:100A03007976120D007BFF7A0E796280067BFF7A7E
:100A13000E79DC120D0022787FE4F6D8FD75816D26
:100A2300020A61020C26E493A3F8E493A34003F6BD
:100A33008001F208DFF48029E493A3F85407240C1F
:100A4300C8C333C4540F4420C8834004F456800100
:100A530046F6DFE4800B0102040810204080900A70
:100A6300A6E47E019360BCA3FF543F30E509541F05
:100A7300FEE493A360010ECF54C025E060A840B804
:100A8300E493A3FAE493A3F8E493A3C8C582C8CA82
:100A9300C583CAF0A3C8C582C8CAC583CADFE9DE55
:100AA300E780BE6028007931323334000000000053
:100AB3000000000000000000000000000000000033
:100AC30000000000000000000000000000000060C3
:100AD3002800A10102030405060708090A00000013
:100AE3000000000000000000000000000000000003
:100AF30000000000000000000000004100FB004176
:100B030000FC0041012C0000E4900050F0A3F090A1
:100B13000078F0FE7F50FD7B017A00790012059C7E
:100B23007E007F0B7D007B017A00795212059C7E4B
:100B3300007F0B7D007B017A00795D12059C7E00AE
:100B43007F027D007B017A00796812059C7E007F1D
:100B53000C7D007B017A00796A12059C7E007F027E
:100B63007D007B017A00797602059C900101EBF010
:100B7300A3EAF0A3E9F0AF057E007D0012059C9087
:100B8300010774FFF0A3740EF0A3744DF0A3740176
:100B9300F0A37400F0A3745DF0A37401F0A37400D8
:100BA300F0A37468F0A37401F0A37400F0A3746A53
:100BB300F0A37401F0A37400F0A37476F090010124
:100BC300E0FBA3E0FAA3E0F90200ABC0E0C0F0C091
:100BD30083C082C0D075D010E59A30E031539AFEBD
:100BE3009000FEE59BF09000FCE0C3943274809487
:100BF300804003120E119000FEE0FF9000FCE0FE27
:100C030004F074C92EF582E43400F583EFF0E59A1D
:100C130030E105539AFDC209D0D0D082D083D0F001
:100C2300D0E032E49000FFF0A3F01200031200269C
:100C3300120E467F0A7E00120DF8120C79120B0B6E
:100C4300120620900078E0600D7B017A0079797DAF
:100C530028120B6E80097BFF7A0E79F7120D0012B2
:100C630009777B017A0079797D28120D337FF47E31
:100C730001120DF880CAC2827DFF7FE1120DE712D7
:100C83000CBF7BFF7A00791E9001067405F07F2A62
:100C9300120CCD7D287F31120DE7120DDE7D1A7FF8
:100CA30024120DE77D287F25120DE77D077F26128D
:100CB3000DE77D0E7F20120DE7D282227BFF7A00A3
:100CC300791E9001067405F07F30900103120D64C4
:100CD300AD07E4FC900106E0FFECC39F501A9001BE
:100CE30003E0FBA3E475F001120586A9F0FA1204F0
:100CF300A1FF120D6E0C80DCD283AF052290010C94
:100D0300EBF0A3EAF0A3E9F090010CE0FBA3E0FA17
:100D1300A3E0F91204A1601790010CA3E475F0019C
:100D2300120586A9F0FA1204A1FF120E3C80D92203
:100D3300E4900101F0C282900106EDF07FA0120C55
:100D4300CDD2822087FD7F07120E23900101EFF0A1
:100D53007DFF7FE1120DE7900101E0FD7F27020D8A
:100D6300E7EBF0A3EAF0A3E9F0C283E4FEEEC39459
:100D730008748094805015EF339285EF25E0FFD2FD
:100D830084A286E4334FFFC2840E80E12290010ADD
:100D9300EEF0A3EFF07BFF7A0E795C120D00900169
:100DA3000AA3E02430FF120E3C7BFF7A0E79621215
:100DB3000D0080E1EFB40A07740D120DC2740A30FE
:100DC3009811A899B8130CC2983098FDA899C298A5
:100DD300B811F63099FDC299F599227D017F211250
:100DE3000DE77F22C283120D6EAC07AF05120D6EA5
:100DF300D283AF0422AD07AC06E4FBFAC3EB9DEA52
:100E03009C500A120E300BBB00010A80EF22E490C3
:100E130000FCF0FE7F32FD7B017A0079C902059C5C
:100E2300C283120D6EE4FF120D6ED2832200000006
:100E33007F0B7EBEDEFEDFFC22C2998F993099FDC7
:100E4300C29922C282D283D2842268656C703A2509
:100E53007325733B25732573004552524F52000D82
:100E63000A002A2A2A2A2A2A2A2A2A2A2A2A2A2A29
:100E73000D0A002C00536176655F446174612E5541
:100E8300544354696D65203D2000536176655F448A
:100E93006174612E6C61746974756465203D200012
:100EA300536176655F446174612E4E5F53203D202C
:100EB30000536176655F446174612E6C6F6E676980
:100EC30074756465203D2000536176655F446174E9
:100ED300612E455F57203D20004750532044415425
:100EE30041206973206E6F742075736566756C6C31
:100EF300210D0A0044617461204572726F72210DE5
:020F03000A00E2
:00000001FF
