:10000000020C3B2009FDD2098F9B22020A5B7F383C
:100010001211E97F0C1211E97F061211E97F01022A
:0200200011E9E4
:100023000210A7759850538EBF538EFE53890F75D8
:0E0033008BE8758DFFC2ABD28ED2ACD2AF225D
:10004300020E14E5082402F582E43401F583E00589
:1000530008229000FF300703900102E475F00112BB
:1000630005DA0204A12000E97F2ED2008018EF54A4
:100073000F2490D43440D4FF30040BEF24BFB41AC0
:100083000050032461FFE50960021509050CE50C26
:100093007002050B30070E9000FFE475F0011205A6
:1000A300DAEF0204E70210CF7403D2078003E4C23D
:1000B30007F5089000FF1205F1E4F509F50BF50CBF
:1000C300E50960077F2012008980F5750AFFC201E8
:1000D300C200C202C203C205C206C208120055FF13
:1000E300700D3007057F0012009AAF0CAE0B22B4DF
:1000F300255FC2D5C204120055FF24D0B40A0050B4
:100103001A75F00A780930D50508B6FF0106C6A4AA
:1001130026F620D5047002D20380D924CFB41A0066
:10012300EF5004C2E5D20402029BD20180C6D20082
:1001330080C0D20280BCD2D580BAD20580B47F20E1
:100143001200892002077401B5090040F11200462C
:10015300FF1200890200C3D208D20680951200461E
:10016300FB120046FA120046F94A4B7006796C7A84
:10017300037BFF20022EE509602A7E008E827583B1
:10018300001204BA60060EEE650A70F0C2D5EBC029
:10019300E0EAC0E0E9C0E0EE1202E2D0E0F9D0E02C
:1001A300FAD0E0FB1204A1FF60AAEBC0E0EAC0E0D2
:1001B300E9C0E0120089D0E02401F9D0E03400FA6C
:1001C300D0E0FBE50A0460DCD50AD980877BFF7A9F
:1001D3000279DED202809C791080027908C206C2BD
:1001E300088008D2D5790A8004790AC2D5E50A04C1
:1001F3007002F50AE4FAFDFEFF120046FC7B0820BC
:100203000113120046FD7B1030000A120046FE1255
:100213000046FF7B20EC3382D592D55013C3E430E4
:1002230000069FFFE49EFEE42001039DFDE49CFC89
:10023300E4CBF8C201EC700CCFCECDCCE824F8F8B7
:1002430070F38017C3EF33FFEE33FEED33FDEC3372
:10025300FCEB33FB994002FB0FD8E9EB300105F8C7
:10026300D0E0C448B201C0E00AEC4D4E4F78207B89
:100273000070C2EAB50A0040BCC0E01202E4D0F04C
:10028300D0E0200104C4C0E0C4B201C0F012007287
:10029300D0F0D5F0EB0200C31205FA01605301DA86
:1002A3005801314C012D4201DE4F01E64401E6497C
:1002B30001464301EC5501D04601D04501D0470327
:1002C3008C5001352D01392E015C2B013D23015A40
:1002D3002003752A00F548000001543F3F3F007991
:1002E3000AA2D5200314300509B910020404B90881
:1002F3000104A2D52006025001042002689202B52F
:1003030009005034C0E07F203003197F30A202720D
:10031300067205500F12033BC202C206C205C20891
:100323007F30800F300503E9C0E0120089300503F8
:10033300D0E0F9D0E0B509CC3005177F30B9100C07
:100343001200897F583004077F788003B9080312AD
:1003530000893002057F2D0200897F202008F87F65
:100363002B2006F322920280CF286E756C6C290035
:10037300D2011200463001F8C201780930D50108D4
:10038300F60200F52D504349581200462403B405E4
:10039300004001E49003879312007A743A12007AC2
:1003A300D2037509040201DAE709F608DFFA804689
:1003B300E709F208DFFA803E88828C83E709F0A31D
:1003C300DFFA8032E309F608DFFA8078E309F208FE
:1003D300DFFA807088828C83E309F0A3DFFA8064FC
:1003E30089828A83E0A3F608DFFA805889828A83A8
:1003F300E0A3F208DFFA804C80D280FA80C680D472
:10040300806980F28033801080A680EA809A80A879
:1004130080DA80E280CA803389828A83ECFAE493AB
:10042300A3C8C582C8CCC583CCF0A3C8C582C8CC39
:10043300C583CCDFE9DEE7800D89828A83E493A359
:10044300F608DFF9ECFAA9F0EDFB2289828A83EC46
:10045300FAE0A3C8C582C8CCC583CCF0A3C8C582C3
:10046300C8CCC583CCDFEADEE880DB89828A83E4FB
:1004730093A3F208DFF980CC88F0EF60010E4E60A1
:10048300C388F0ED2402B4040050B9F582EB2402D2
:10049300B4040050AF23234582239003FB73BB01B5
:1004A3000689828A83E0225002E722BBFE02E3220E
:1004B30089828A83E49322BB010CE58229F582E5D4
:1004C300833AF583E0225006E92582F8E622BBFE53
:1004D30006E92582F8E222E58229F582E5833AF5E9
:1004E30083E49322BB010689828A83F0225002F7B8
:1004F30022BBFE01F322F8BB010DE58229F582E55B
:10050300833AF583E8F0225006E92582C8F622BB38
:10051300FE05E92582C8F222EF8DF0A4A8F0CF8C66
:10052300F0A428CE8DF0A42EFE22BC000BBE002921
:10053300EF8DF084FFADF022E4CCF875F008EF2FD7
:10054300FFEE33FEEC33FCEE9DEC984005FCEE9D94
:10055300FE0FD5F0E9E4CEFD22EDF8F5F0EE8420B0
:10056300D21CFEADF075F008EF2FFFED33FD400711
:10057300985006D5F0F222C398FD0FD5F0EA22C5B4
:10058300F0F8A3E028F0C5F0F8E5821582700215B3
:1005930083E038F022A3F8E0C5F025F0F0E58215FA
:1005A3008270021583E0C838F0E822EF4E6012EF44
:1005B30060010EEDBB010B89828A83F0A3DFFCDEB1
:1005C300FA2289F05007F709DFFCA9F022BBFEFCF1
:1005D300F309DFFCA9F022F8E0FBA3A3E0F925F07F
:1005E300F0E582158270021583E0FA38F022EBF011
:1005F300A3EAF0A3E9F022D083D082F8E493701247
:10060300740193700DA3A393F8740193F582888307
:10061300E4737402936860EFA3A3A380DFE4900004
:10062300D7F0A3F0A3F012002612113C121170129E
:1006330012077F0A7E00121157120E6CD2A4120009
:100643000E7BFF7A1279D27D017F0212104E120BBC
:10065300057BFF7A1279DE120F4B7BFF7A1279F258
:100663001207AB7BFF7A1279F7120F4B7BFF7A13DA
:10067300790F7D017F0212104E120DB19000AC7400
:1006830001F07E007F287D007B017A0079AD1205A1
:10069300AE9000DE7401F0A37400F0A374D8F07B75
:1006A300017A0079AD7D28120D4B9000ADE0FF3348
:1006B30095E0FEEF4E60299000D9E004F0787D7C50
:1006C300007D017B017A0079AD7E007F2812047BD7
:1006D3009000D9E0D394647480948040037401F053
:1006E3009000D9E070030207699000ADE0FF3395F5
:1006F300E0FEEF4E7029A3E0FF3395E0FEEF4E706E
:100703001EA3E0FF3395E0FEEF4E7013A3E0FF332B
:1007130095E0FEEF4E70089000ABE004F08005E436
:100723009000ABF09000ABE0FF3395E0FEC3EF9495
:1007330005EE64809480402AA3E060219000DD747C
:1007430001F0A37400F0A3747DF09000A6E0FBA376
:10075300E0FAA3E0F91208C7E49000ACF0120EB976
:100763008006D2A48002D2A4E49000D7F09000D7F0
:10077300E0FEC39420748094805023E0FDC4540FA2
:1007830004FFED540F04FD74AD2EF582E43400F53F
:1007930083E0FB1211F39000D7E004F080CF7FF4E5
:1007A3007E011211570206859000DAEBF0A3EAF0FE
:1007B300A3E9F078DD7C007D017BFF7A12798A7EE4
:1007C300007F1E12047B7E007F1E7D007B017A006A
:1007D30079DD1205AE90010274FFF0A37412F0A349
:1007E3007434F09000DAE0F9A3E0FAA3E090010595
:1007F300C9F0A3EAF0A3E9F07B017A0079DD1200E6
:10080300AB90010274FFF0A37412F0A3744BF0A336
:100813007402F07B017A0079DD120BA1900102745E
:10082300FFF0A37412F0A3744BF0A37402F07BFFE8
:100833007A12794E120BA190010274FFF0A3741285
:10084300F0A3744BF0A37402F07BFF7A1279581271
:100853000BA112000E1211877BFF7A127966120F19
:10086300B67BFF7A127926120FB67FD07E0712115C
:1008730057E49000FBF09000FBE0FFC394207480EA
:100883009480502874272FF582E43401F583E0FB2C
:10089300601A9000FBE0FEC4540F04FFEE540F04F3
:1008A300FD1211F39000FBE004F080CA120F0490D4
:1008B300010B74FFF0A37412F0744B12101CEF6061
:1008C300940211879000DAEBF0A3EAF0A3E9F07841
:1008D300E07C007D017BFF7A1279A87E007F1E12E7
:1008E300047BE49000FEF012000E7E007F1E7D006C
:1008F3007B017A0079E01205AE90010274FFF0A348
:100903007412F0A3747BF09000DAE0F9A3E0FAA389
:10091300E0900105C9F0A3EAF0A3E9F07B017A00B6
:1009230079E01200AB90010274FFF0A37412F0A3FC
:100933007488F0A37402F07B017A0079E0120BA1B2
:100943001211879000DDE0FBA3E0FAA3E0F9120F98
:10095300B67F1A1200037FB87E0B121157E4900082
:10096300FEF09000FEE0FFC3942074809480502832
:1009730074272FF582E43401F583E0FB601A9000BD
:10098300FEE0FEC4540F04FFEE540F04FD1211F3F6
:100993009000FEE004F080CA2290010EEBF0A3EA7F
:1009A300F0A3E9F0A3E0FBA3E0FAA3E0F91204A1AA
:1009B3007003020A4890010EE0FBA3E0FAA3E0F9FA
:1009C3001204A17003020A54900111E0F9A3E0FAA2
:1009D300A3E0A3C9F0A3EAF0A3E9F090010EA3E01A
:1009E300FAA3E0F9900117EBF0A3EAF0A3E9F09082
:1009F3000114E0FBA3E0FAA3E0F91204A1FF6026CF
:100A0300900117E0FBA3E0FAA3E0F91204A16F70D1
:100A13001590011575F001120582900118E475F027
:100A23000112058280C9900114E0FBA3E0FAA3E060
:100A3300F91204A17002800D90010FE475F0011208
:100A430005820209B890010EE0FBA3E0FAA3E0F9E6
:100A5300227B007A00790022C0E0C0F0C083C0820C
:100A6300C0D075D000C000C006C00790007BE475FD
:100A7300F001120598FEE5F064C84E703F90007BCC
:100A8300F0A3F09000A5E0FFC394647480948050B9
:100A930009EF940074809480500F9000A9E07F00C8
:100AA30070027F019000A9EFF09000A9E09000A5EB
:100AB3006006E0240AF08004E024F6F09000ACE045
:100AC300602890007AE004F07006900079E004F06A
:100AD300C390007AE094B8900079E0940B4012E45C
:100AE300F0A3F09000AC04F08007900079E4F0A349
:100AF300F0D007D006D000D0D0D082D083D0F0D0B1
:100B0300E032E49000DAF0A3F012118712000E1223
:100B130011877BFF7A127929120FB67FE87E0312C1
:100B23001157E49000DBF09000DBE0FEC3942074E7
:100B33008094805023E0FDC4540F04FFED540F0450
:100B4300FD74272EF582E43401F583E0FB1211F3E3
:100B53009000DBE004F080CF120F04E49000DAF0A1
:100B63009000DAE0FFC394327480948050A174271C
:100B73002FF582E43401F583E0B43A1A9000DAE009
:100B8300242BF582E43401F583E0FF64316004EF44
:100B9300B434037F01229000DAE004F080C29000B5
:100BA300FFEBF0A3EAF0A3E9F0E4900106F0A3F071
:100BB30012000E1211879000FFE0FBA3E0FAA3E0FE
:100BC300F9120FB67BFF7A127926120FB690010540
:100BD300E0FF7E007C037DE812051B121157120F04
:100BE30004E4900107F0900107E0FEC394207480B1
:100BF30094805023E0FDC4540F04FFED540F04FD13
:100C030074272EF582E43401F583E0FB1211F3908F
:100C13000107E004F080CF900102E0F9A3E0FAA31A
:100C2300E090010BC9F0A3EAF0E912101C90010651
:100C3300EFF07003020BB622787FE4F6D8FD7581DE
:100C43006D020C82020620E493A3F8E493A340030D
:100C5300F68001F208DFF48029E493A3F854072413
:100C63000CC8C333C4540F4420C8834004F45680D3
:100C73000146F6DFE4800B01020408102040809057
:100C83000CC7E47E019360BCA3FF543F30E50954D5
:100C93001FFEE493A360010ECF54C025E060A8407B
:100CA300B8E493A3FAE493A3F8E493A3C8C582C872
:100CB300CAC583CAF0A3C8C582C8CAC583CADFE947
:100CC300DEE780BE4100AA004100A50A4100A90158
:100CD3004300A6FF12C64100AC00602800AD00002F
:100CE3000000000000000000000000000000000001
:100CF30000000000000000000000000000000000F1
:100D03000000000000006028007D000000000000DB
:100D130000000000000000000000000000000000D0
:100D230000000000000000000000000000000000C0
:100D330000004100AB0042007B000041015900412B
:100D4300015A0041015B00009000DAEBF0A3EAF0E6
:100D5300A3E9F0A3EDF0E49000E1F07F071211B9ED
:100D63009000E1EFF0544060259000DAE0FBA3E04F
:100D7300FAA3E0F9A3E09000E6F07F61120F8190FF
:100D830000DEE0FBA3E0FAA3E0F97401800C90001D
:100D9300DEE0FBA3E0FAA3E0F9E41204E77DFF7FC2
:100DA300E21211999000E1E0FD7F27021199E4908E
:100DB3000050F0A3F0900078F0FE7F50FD7B017AA5
:100DC3000079001205AE7E007F0B7D007B017A0067
:100DD30079521205AE7E007F0B7D007B017A00798C
:100DE3005D1205AE7E007F027D007B017A0079688B
:100DF3001205AE7E007F0C7D007B017A00796A12BA
:100E030005AE7E007F027D007B017A0079760205C4
:100E1300AEC0E0C0F0C083C082C0D075D010E59AE8
:100E230030E031539AFE9000D6E59BF090015AE0F2
:100E3300C394327480948040031211879000D6E0EB
:100E4300FF90015AE0FE04F074272EF582E434018A
:100E5300F583EFF0E59A30E105539AFDC209D0D04E
:100E6300D082D083D0F0D0E032C2927BFF7A137964
:100E73001B9000DE7405F07F30120FE97BFF7A13BD
:100E8300791B9000DE7405F07F2A120FE97D017F44
:100E9300211211997F221211997D287F2512119910
:100EA3007F311211997D077F261211997D0F7F20C3
:100EB300121199D292227D08E49000DAF0C2AFEDCC
:100EC300D39400748094804033E4FBFAD2A41211CB
:100ED300D2C2A41211D20BBB00010ABA07EEBBD0D7
:100EE300EBE4FAFBD2A41211DEC2A41211DE0BBB97
:100EF30000010ABA06EEBB40EB1D80C3D2A4D2AFF9
:100F030022E4900108F090015BE004F07BFF7A1289
:100F1300790E120F4BE4900108F0900108E0FFC333
:100F2300943274809480501774272FF582E434012F
:100F3300F583E0FF1211FD900108E004F080DB7BF4
:100F4300FF7A127926020F4B900109EBF0A3EAF026
:100F5300A3E9F0900109E0FBA3E0FAA3E0F912048E
:100F6300A1601A900109A3E475F001120598A9F094
:100F7300FA1204A1F5993099FDC29980D622900006
:100F8300E312107BAD07E4FC9000E6E0FFECC39FA7
:100F9300501CE4FF1210859000E3E0FBA3E0FAA3EA
:100FA300E0F98C82758300EF1204F90C80DAD29396
:100FB300AF0522900108EBF0A3EAF0A3E9F090015A
:100FC30008E0FBA3E0FAA3E0F91204A16017900183
:100FD30008A3E475F001120598A9F0FA1204A1FF21
:100FE30012000380D9229000DB12107BAD07E4FCD2
:100FF3009000DEE0FFECC39F501A9000DBE0FBA300
:10100300E475F001120598A9F0FA1204A1FF121079
:10101300850C80DCD293AF0522A3F07B017A0179A2
:1010230027C002C00190010BE0F9A3E0FAA3E0900E
:101033000111C9F0A3EAF0A3E9F0D001D00212092B
:101043009CE94A4B7F0060027F01229000DAEBF0BB
:10105300A3EAF0A3E9F012111EE4FD9000DAE0FB2D
:10106300A3E0FAA3E0F98D827583001204BAFF604E
:101073000612110F0D80E422EBF0A3EAF0A3E9F0CE
:10108300C293E4FEEEC39408748094805015EF334A
:101093009295EF25E0FFD294A296E4334FFFC294DA
:1010A3000E80E122C0E0C083C082C0D075D018E4B6
:1010B300FF9000D5F0C2AC309807C298AF991211D7
:1010C300FDD2ACD0D0D082D083D0E032EFB40A07C7
:1010D300740D1210DA740A309811A899B8130CC25F
:1010E300983098FDA899C298B811F63099FDC29925
:1010F300F59922E0FCA3E0FDCFCDCFCECCCE1205F7
:101103002D7C007D0A12052DED2430FFD2A612118D
:10111300AAC2A70211B0EAF0A3EBF0AE07EEFB7A86
:101123000064017004ED148009EB64024A7009ED58
:10113300243F4480FF1211E922759A50538EFB75A8
:10114300D7E875D6FF438E1053AFFE43AF01D2AF3E
:1011530053BAFE22AD07AC06E4FBFAC3EB9DEA9C4F
:10116300500A1211C60BBB00010A80EF225389F00B
:10117300438901758AA4758CFFC28DD28CD2A9D202
:10118300AFC2B922E490015AF0FE7F32FD7B017AAF
:101193000179270205AEC293121085AC07AF051281
:1011A3001085D293AF0422C2A58F80D2A77F027E7F
:1011B300EFDEFEDFFC22C293121085E4FF121085DE
:1011C300D293220000007F0B7EBEDEFEDFFC2200F6
:1011D30000007F047EC0DEFEDFFC2200007F067E6F
:1011E3005DDEFEDFFC22C2A61211AAC2A70211B065
:1011F300AC0312111EAF0402110FC2998F993099DB
:10120300FDC29922C292D293D294222A2A2A2A2A4E
:101213007072696E742064656275672A2A2A2A2AA5
:101223000D0A000D0A0041542B435245473F0D0A56
:101233000041542B435343413D222B38363133383D
:1012430030257335303022004F4B0041542B434D32
:1012530047463D310041542B435343533D224753AB
:101263004D220041542B43534D503D31372C3136E1
:10127300372C302C3234310041542B434D47533DEE
:1012830022257322003E0000000000000000000041
:10129300000000000000000000000000000000004B
:1012A300000000000000000000000000000000003B
:1012B300000000000000000000000000000000002B
:1012C3000000003139383237303536373232005387
:1012D300494D20494E4954696E6700536574204354
:1012E3005245472073756363656564210D0A0030B9
:1012F30035313300536574204D53475F4D4F44459B
:101303002073756363656564210D0A0053494D209D
:0D131300494E4954204F4B00344310100147
:00000001FF
